:100000000C94D0020C94ED020C9408030C94ED02B5
:100010000C94ED020C94ED020C94E7260C94ED0286
:100020000C94ED020C94ED020C94ED020C94ED0294
:100030000C94ED020C94ED020C9479260C94ED02D4
:100040000C94ED020C94ED020C94ED020C94ED0274
:100050000C94ED020C94ED020C94ED020C94ED0264
:100060000C94ED020C94ED02960499049C04A604F1
:10007000A904B604BF04C504F90403050B05CF04A5
:10008000E304360AAA0A3E0A080A0C0A420A0F0AC0
:10009000450A500A1A0AA00A1E0A540A220A580AD5
:1000A000820A260A5C0A8C0A2C0A620A6C0A130A63
:1000B000490A160A4C0A310A670A780A980A9A0A03
:1000C000040A3A0AB30AD90ADF0ACD0AD30AE50AB2
:1000D000EB0AF10A010C010C310C310CC30C090EB6
:1000E000090E090EE10C590D6C0D6C0D40135913DE
:1000F00063138C158C159E13B513C81309140E14B5
:1001000039145E1492149514A214B114C914021572
:1001100016153D156215FD377A585A000004E6D6CB
:10012000B4460200210116000000742FE5A3E0018F
:10013000D600DF5D003D888986D3DC0AE842C3240F
:10014000925842588FD8E75CA0D2616E26E88801A9
:100150009A676C7887BC8D3709EA0E1459A53C79EB
:100160008586623CB1387CF673B05A144E0CE66555
:100170001E71EFCA080DC37AC630F5EE673B09ABB6
:10018000F72A4E6644BF356BC0E25E1F3770F21B24
:1001900014D5C7DD0E47835BD9347A26DC905D2108
:1001A000AE90969246C2CA20AD0B5AECC621D65DDF
:1001B000D1AC857125EE6A3075A51CE0A6952BA4FF
:1001C00049E7768A4EE6B5B8D4978156B37B6D265B
:1001D00077CAAD5E84914F1A347C350184249153E3
:1001E000C562B2F3EF1A4D4EC1120EFFEB7D15B989
:1001F0006B75AB2D553E009776DC58F4AB9B10AB7E
:1002000087417EE42B49FFF288E377FAA5A6D3FE67
:100210009FC9DC1600001467190719A725B800014B
:10022000FB01D7030000CE2BA538B1C467FB020049
:1002300000000004595A010001003403FA16DF16C9
:100240000000020002003003FA16DF16000003006F
:1002500001003503FA16DF160000040002001A033D
:10026000FA16DF163916050001003603FA16DF16F6
:100270000000060002001C03FA16DF16000007004B
:1002800002003203FA16DF160000080001003703EF
:10029000FA16DF160000120002003803FA16DF1605
:1002A0000000130002003A03FA16DF1600001400E3
:1002B00001003C03FA16DF160000150000000000E4
:1002C000BC155F16000014001A0008001500170086
:1002D0001C0018000C00120013000428162407212B
:1002E00009220A000B000D320E310F3428001D00C8
:1002F0001B00000006001900050011001000360068
:100300003700E000E200E30000002A0000002C417A
:10031000E600E700E4001E001F002000210022008C
:10032000230024002500260027001E021F022002B1
:10033000210222022302240225022E002D002F0278
:100340002F00000026022D02270230003002330069
:100350003400427C487C01000000010000000100E4
:1003600001000100010005010906A101850605073C
:1003700019E029E715002501950875018102050797
:10038000190029EF1500250195F075018102050876
:1003900019012905950575019102950175039103D0
:1003A000C005010980A101850319012AB7001501C3
:1003B00026B700950175108100C0050C0901A10147
:1003C000850419012AA002150126A00295017510C5
:1003D0008100C00660FF0961A1010962150026FFC6
:1003E000009520750881020963150026FF009520FD
:1003F00075089102C005010906A101050719E02948
:10040000E7150025019508750181029501750881A0
:10041000030507190029FF150026FF00950675083A
:1004200081000508190129051500250195057501AB
:100430009102950175039103C01C03760069006168
:10044000006C003A0066003600340063003200623F
:10045000003300630000000E036D00610064007251
:1004600000610073000000160344006D0039005263
:1004700000650063006F00720064007300000004F8
:1004800003090409025B00030100A0FA090400004B
:1004900001030101000921010100012244000705B7
:1004A0008103080001090401000203000000092182
:1004B000010100012222000705840308000107054D
:1004C00004030800010904020001030000000921DF
:1004D00001010001226D00070583030800011201DC
:1004E000100100000008464449D400010102030144
:1004F00000000000000000000000000000000000FC
:1005000000000000000000000000000000000000EB
:10051000000000007E0F00D4FFFFFFC7000000783E
:1005200000000000000000002A2B2800000000004E
:100530000000000000000000000000290000000092
:100540002C1E3420212224342627252E362D373800
:10055000271E1F202122232425263333362E373809
:100560001F0405060708090A0B0C0D0E0F101112C7
:10057000131415161718191A1B1C1D2F3130232D93
:10058000350405060708090A0B0C0D0E0F10111291
:10059000131415161718191A1B1C1D2F3130354C42
:1005A00011241FBECFEFD8E0DEBFCDBF11E0A0E029
:1005B000B1E0E0E9F3E602C005900D92A436B10780
:1005C000D9F725E0A4E6B1E001C01D92A635B20737
:1005D000E1F70E94630E0C94C6310C940000A82F22
:1005E000B92F80E090E041E050EA609530E009C02A
:1005F0002D9182279795879510F084279527305E57
:10060000C8F36F5FA8F30895EADF8D939D93089573
:10061000CF93CFB7CF93DF93C3954B9BE9F74B9B1A
:1006200010C04B9B0EC04B9B0CC04B9B0AC04B9BFE
:1006300008C04B9B06C0C0910A05C395C0930A052C
:100640008EC06F93C0913005DD27CD5CDA4F2F93BC
:1006500065E54B9B03C02F916F91E1CF0F931F93E3
:100660004F9320E040E15F9309B10C7003FB27F941
:100670003F9350E03BE039C01C7040642F77012F5E
:100680005F5F1EC0406819B11C702F7752501FC0A9
:10069000406409B12F770C70D1F15F5F00C023C0B7
:1006A000406219B12F771C7091F15F5F00C025C0C7
:1006B0000C701027515012F45D5F00001150279507
:1006C0002C3F19B1C8F61C700127015027952C3F0B
:1006D000C8F64227499309B10C7010274F73115087
:1006E00027952C3FA8F64695469519B11C7079F0D0
:1006F0000127015027952C3F98F66B5A60F3315033
:1007000009B1B0F600C012E01CBB00271CC03B5072
:100710003195C31BD04012E01CBB0881033C21F182
:100720000B3411F120912E051981110F1213EDCF09
:100730004A81441F093679F10D3211F0013E29F743
:100740004F7009F0042F009355053F915F914F9131
:100750001F910F912F916F91CCB3C1FD5DCFDF91B0
:10076000CF91CFBFCF91189520915505222369F3E2
:1007700010913105112309F049C034300AF448C002
:100780003093310520932F05109130053BE0311B4C
:10079000309330053DC0009131050130BCF50AE5CC
:1007A0004F7049F43091140134FD33C000931401AB
:1007B000CBE0D5E032C0433059F0443091F0309175
:1007C000160534FD26C000931605C7E1D5E025C007
:1007D0003091490534FD1DC000934905CAE4D5E0B8
:1007E0001CC03091220534FD14C000932205C3E2E1
:1007F000D5E013C0052710E000C000000BB91AC0F7
:10080000052710E0221F1DC010E021C04AE502C0EC
:1008100032ED432FC4E1D0E032E01AB11C605B9AA4
:100820000BB11AB95CE020E865E320FF05270BB99E
:10083000279517951C3FF0F66695B8F7B1F720FF9E
:1008400005270BB9279517951C3FD0F627951795C7
:1008500017FF052700001C3F0BB9B0F629913A9508
:1008600019F7037F10913205110FC651D0400BB913
:1008700011F010932E0512E01CBB08601AB1137F13
:10088000402F437F54E05A95F1F70BB91AB94BB991
:100890005CCFADE0B0E0EFE4F4E00C947231DC0149
:1008A00014962C91222311F40C945F0E7C0161E0CC
:1008B0000E940E2E8C01F7018581882331F1E09191
:1008C000C604F091C704309701F10E171F07E9F035
:1008D000FF27E830F10540F4B4E0EE0FFF1FBA95B2
:1008E000E1F7E555FE4F02C0E0E0F0E0858184606D
:1008F000858311830083CF010E9428281092C504AC
:1009000061E0C7010E940E2E8C01D70115968C91D3
:10091000882309F493C0F801E054FC47ED30F10559
:1009200008F08CC0EC5CFF4F0C9465310E94B92933
:1009300085C00E94EC2982C08091AB0480FF03C077
:100940000E94EC2971C00E94B9296EC00E94CB2977
:1009500075C09091AE0481E0890F83709C7F8330D5
:1009600011F0892B4DC09093AE045EC08091AC0411
:10097000982F909590FB80F98093AC0455C080919E
:10098000AB04982F9E7F9E5F05C08091AB04982F8B
:100990009E7F92508170892B8093AB0445C0C0909C
:1009A000AC04C694D12CB4E6CB16D10444F4EFEFDA
:1009B000CE1ADE0AF5E6CF16D104A4F010C0A4E0EA
:1009C000CA2ED12C0FC0C090AC04C694D12C25E007
:1009D000C216D10424F031E0C31AD10803C0F4E6F2
:1009E000CF2ED12C8C2D0E949F298C2D0E949F29C7
:1009F00025C08091AE0482FF02C08B7F01C084605D
:100A00008093AE0411C08091AD04883710F4865FE6
:100A100009C088E707C08091AD04843110F08A5086
:100A200001C084E18093AD046091AB047091AC048B
:100A30008091AD049091AE040E946A1F8091AB0436
:100A400080FF10C0D70115969C918091AE048370F1
:100A5000992331F0823030F480E00E94831902C083
:100A60008111FACFF7013580332009F4C0C0C801E5
:100A700097578038910508F006C1D02EFFE0F01797
:100A800008F42AC68FEF93E00E940531811124C635
:100A90000CE712E0DD2071F0011524E0120709F4E3
:100AA0001BC6C8010E940531811101C0DA940F5F95
:100AB0001F4FF0CFE4E05E2EAE014F5F5F4F3A0173
:100AC00044244A94D301E52D1D92EA95E9F7680183
:100AD000FFEFCF1ADF0AC8010E94053189838823FE
:100AE00009F4FAC5813009F07EC0580122E0A20E57
:100AF000B11CC6010E940531382E8A83882309F46F
:100B0000EBC58FEF830D833060F4680133E0C30ED3
:100B1000D11CC5010E9405318B83811164C08601FF
:100B2000D1CF8BEF830D833078F5480143E0840EFD
:100B3000911CC5010E9405318B83811102C06401A3
:100B4000EECF680154E0C50ED11CC4010E940531EE
:100B50008C83882321F32B813C8121308FEF380750
:100B600018F0922F80E001C0C901A6E03A1631F0DA
:100B7000B7E03B1631F00E94931BD1CF0E946E1B51
:100B8000CECF0E94F41ACBCFE4E03E1611F06501FF
:100B9000C6CFC5010E940531B82E6801F4E0CF0E22
:100BA000D11CC80103960E940531BB2009F494C5ED
:100BB000882309F491C5282F30E021503109429E45
:100BC000A001439E500D11248B2D90E00197840FBE
:100BD000951F019708F4A3CFAFE9BFE01197F1F794
:100BE00000C00000F6CFC3010E944D2B98CF6801D2
:100BF000E7E5DE1AFFEFCF16D10411F008F05DC073
:100C000061EA71E08C2D0E94B62A892BB9F5C601E4
:100C100074E0880F991F7A95E1F7FC01E555FE4FC6
:100C200022812130C9F42091A1013091A201232B0E
:100C300029F12091A3013091A401232BF9F02091F7
:100C4000A5013091A601232BC9F42091A701309171
:100C5000A801232B49F012C0223081F42091A50174
:100C60003091A601232B51F0FC01E055FE4F20816D
:100C70002E7F208385559E4F0E942828D7011596E8
:100C80003C903320D9F00E35BCE71B0761F00F35DF
:100C9000ECE71E0761F00D35FCE71F0779F4809142
:100CA0000001811104C081E08093000115C51092FC
:100CB000000180E00E9412290FC5312C80910001B3
:100CC000811108C0C80197558F3F910511F008F0B8
:100CD00008C294C1380120EE621A710820906B049A
:100CE00080914504282A8091F902282A38E0631669
:100CF000710480F498012770332781E090E001C0EF
:100D0000880F2A95EAF7332011F0282A18C0809519
:100D1000282215C0332009F432C1109367010093D3
:100D200066010E94AE266093B7047093B804809366
:100D3000B9049093BA041092BF041092BE04D70174
:100D40008D919C910E94E82121E030E0F90102C0E0
:100D5000EE0FFF1F8A95E2F7FB87EA872091C00418
:100D60003091C1043F832E83409166015091670109
:100D7000598748876CE7C62E62E0D62EA12CB12C8D
:100D8000832D90E09D878C8728E0A216B10409F49A
:100D90000DC1C114D10409F409C1211005C0D60147
:100DA00012968C918111E4C0F601838190E02A852E
:100DB0003B8582239323892B09F4DAC08085982F01
:100DC000977009F487E038E06316710440F433202B
:100DD00019F081FD09C0CCC082FD06C0C9C0332016
:100DE00009F4C6C080FFC4C0D6018D909C90081540
:100DF000190519F4332009F4BBC0EE81FF81EC150D
:100E0000FD0509F4B5C0D6011D96ED91FC911E9724
:100E1000309721F08081882309F4AAC0622DC60191
:100E20000E947F29882309F4A3C00815190519F425
:100E30004C845D8402C0412C512CB42DB170BD8313
:100E400081E08114910441F0B11106C0E885F98573
:100E50008E169F0609F080E080FF8AC080E00E9425
:100E60001229D092C104C092C00481E08093BD04D5
:100E70008FE08A9DF0018B9DF00D1124E458FD4F09
:100E800085818093BB042D81211110C081149104B0
:100E900069F0808191819C0124503109213A31050A
:100EA00018F40E94102702C00E9473258FE08A9DCB
:100EB000F0018B9DF00D1124E458FD4FC680D780C2
:100EC000C6019A9581159F4110F440EED4229924D1
:100ED0009394C60101978F339E4708F0912C8FE0C1
:100EE0008A9DD0018B9DB00D1124A458BD4F199639
:100EF000ED91FC911A97309739F01B966D917C918A
:100F00001C9781E009959822992059F18FE08A9DDC
:100F1000F0018B9DF00D1124E458FD4F86819781DF
:100F20000E948B308093BC0488E06816710420F422
:100F3000C6010E94C12815C0C6010497813A9105D7
:100F400020F48C2D0E943E270EC00E94D620AFE3D5
:100F5000BCE91197F1F700C000008C2D0E949D257F
:100F600002C00E94D620B1E04B2640FCABCE1CC193
:100F7000EFEFAE1ABE0AFFE0CF0ED11C05CF809175
:100F80006601909167010817190781F410926701B3
:100F9000109266011092B7041092B8041092B9042E
:100FA0001092BA041092BF041092BE048091C00443
:100FB0009091C104009709F485CE38E0631671045E
:100FC00038F4622D0E947F2981117CCE81E013C00C
:100FD000DC012D913C910217130729F4311006C052
:100FE0001092BD0407C0332009F46CCEFC0180854B
:100FF00085FD68CE80E00E94122964CE5801BB2492
:10100000F8E0AF16B1040CF067C3C50154E0880FD7
:10101000991F5A95E1F79C0125553E4F6901D7016B
:1010200015962C911597FC01E055FE4F5F018081CC
:1010300020FB80F9808315968C918823A1F10E9472
:10104000BA2690937E0180937D01D60112968C91F1
:1010500012978F5F12968C9312979091C50480918E
:10106000F902892B13968C93139780916B04149635
:101070008C93149716964D915C9117971E966D91CF
:101080007C911F97C6010E940928F501808181FF8C
:1010900003C090E080E002C0902F812F9093C6049F
:1010A0008093C7041EC0D6011C964D915C911D977C
:1010B0001E966D917C911F97C6010E940928F5012B
:1010C000808181FF0EC0C6010E940F288091C60456
:1010D0009091C7040817190721F41092C7041092C1
:1010E000C6048091350380FF32C00E94BA266C018D
:1010F000D70115968C91882309F468C080910D0161
:1011000082FF08C02FE731E040E0B60180E090E0C8
:101110000E94D0180431BCE71B0709F44FC0053109
:10112000ECE71E0709F443C00331FCE71F0729F46D
:1011300080910D01816080930D01C801905281154D
:10114000904308F059C01092410310924003F801F7
:10115000E851FC47E730F10508F41BC2F70185812F
:10116000811135C10631FCE71F0709F06AC2909171
:10117000F902292F2A7A3091340330FD3DC231FD26
:1011800041C232FD45C233FD49C2882309F44FC232
:1011900081E0211101C080E080936801222309F4DD
:1011A00044C285E30E943E270E94D62095C28091CA
:1011B0000D01982F909590FB80F903C080910D014F
:1011C0008E7F80930D010E949618B7CF013E1105C6
:1011D00021F480910D018F7E06C0053E110531F48A
:1011E00080910D018F7D80930D0106C0C801905242
:1011F0008115904308F4ABCF80910D0180FFA7CFFC
:10120000D70115968C910832110538F40E3111056D
:10121000B8F40430110578F4CCC00933110538F462
:101220000D32110590F40B32110579F0C2C004366D
:10123000110559F0BEC09091350394FDBAC009C0A4
:101240009091350393FDB5C004C09091350392FD94
:10125000B0C0882309F4A6C090916B048091F90274
:10126000892B8D7F79F11092410310924003809178
:10127000350381FD27C0F80143E0F695E7954A95CF
:10128000E1F7EE71FF27E650FD4F98012F703327ED
:1012900081E090E002C0880F991F2A95E2F78095BF
:1012A0009095208131818223932391838083A701AC
:1012B00060E0C8010E94B51880916B048D7F0E9488
:1012C000F71F6CC089E0F701AFE7B1E001900D9224
:1012D0008A95E1F71092820110928101809140037A
:1012E0009091410308171907E1F58091350385FFB7
:1012F00038C090910D0191FF02C086FF32C08091ED
:101300003E0390913F035601A81AB90AB701C801DC
:101310000E94BE1AA816B90620F58091F90281FF35
:1013200008C080910D01806180930D0182E00E94D0
:1013300027208091F90285FF08C080910D0180620D
:1013400080930D0180E20E94272060910D01669537
:101350006170A70180914003909141030E94B518EC
:10136000BBC180916B049091F902982B9695917076
:1013700020910D0190FB21F920930D018D7F0E949A
:10138000F71F1093410300934003D0923F03C09294
:101390003E0380910D01846080930D0182E00E94E4
:1013A0003B209AC1970140E0B601C8010E94D018C5
:1013B00093C1882309F4CBCE1092410310924003CD
:1013C000F801E851FC47E730F10508F4E2C010925B
:1013D000C404C8019057839708F00CC184E090E0E2
:1013E0000E9413319093CF048093CE04F801E15012
:1013F000F047E232F10520F4EF5BFF4F0C946531CA
:101400008091CE048160ACC08091CF048860B4C06C
:101410008091CE048260A4C08091CE0420C08091CF
:10142000CE0488609DC08091CF041EC08091CF04FF
:101430008260A2C08091CE04806192C08091CE046F
:1014400080628EC08091CE0480648AC00E94C524D0
:101450008091CE04806884C08091CE0488608460CE
:101460007FC08091CF048260816086C08091CE046D
:101470008E7F76C08091CF04877F7EC08091CE041E
:101480008D7F6EC08091CE0420C08091CE04877F76
:1014900067C08091CF041EC08091CF048D7F6CC047
:1014A0008091CE048F7E5CC08091CE048F7D58C029
:1014B0008091CE048F7B54C00E94C5248091CE04BD
:1014C0008F774EC08091CE04877F8B7F49C08091FB
:1014D000CF048D7F8E7F50C08091CE0482FB222767
:1014E00020F991E0922790FB82F990FB83F938C0B4
:1014F0008091CF04982F909591708E7F892B90FBCF
:1015000081F93AC08091CE0486FB222720F991E030
:10151000922790FB86F924C00E94C5248091CE04B6
:1015200087FB222720F991E0922790FB87F918C0CA
:1015300061E001C060E08EE090E00E9429311EC0B1
:101540008091CE0484FB222720F991E0922790FB22
:1015500084F906C08091CE04982F909590FB80F975
:101560008093CE040BC08091CF0483FB222720F907
:1015700091E0922790FB83F98093CF046091CE0491
:101580007091CF0484E090E00E9447310E94C5240E
:10159000A3C0ED59FF4F0C94653106E221EE41EEF8
:1015A0006AE17CE723C007E225EE45EE6BE17CE7CC
:1015B0001DC006E221EE40EE68E17CE717C007E2BD
:1015C00025EE44EE69E17CE711C006E221EE42EE31
:1015D0006CE17CE70BC007E225EE46EE6DE17CE7AF
:1015E00005C008E221E045EE6EE17CE7C7010E94FC
:1015F0004F2872C081E0B6CD492F447409F4BFCDA5
:1016000020E0BDCD492F417109F4BBCD20E0B9CD1B
:10161000492F487809F4B7CD20E0B5CD927209F48E
:10162000B4CD882321F01092680189E2BBCD80916E
:101630006801882311F085E301C089E20E94102728
:10164000B3CD07372CE7120731F4882311F081E07E
:1016500009C081E00BC008373CE7130779F4882301
:1016600021F082E00E94832203C082E00E94762261
:1016700043E062E081E00E9454222EC09801205E87
:10168000324520323105A8F4811113C00F7181E079
:1016900090E09C0102C0220F331F0A95E2F78901F6
:1016A000622F83E090E00E942931802F0E948F22D8
:1016B00013C0F7018581882309F446C003303CE755
:1016C000130771F100F501155CE71507B9F481E026
:1016D0000E946A300E94642680914804877009F451
:1016E000EEC2F7018581882309F4E9C28091CF0415
:1016F00082FFE5C282E00E943B20E1C201308CE71C
:101700001807A1F021C00B359CE71907D1F00C3563
:10171000ACE71A0771F00A351C47B1F481E012C03A
:101720006FEF7FEF80E090E00E9447310E947D30B4
:10173000D3CF8091CF0482FB882780F991E089275D
:1017400001C080E00E945220D70117968D919C9194
:1017500018970097C9F4D70115968C9115970D919C
:101760001C91882349F0C8010E94AC21D82E682F13
:10177000C8010E941C2204C0C8010E94E821D82E82
:10178000B8018D2D0E940C1E0E94291E182F092FB2
:10179000F701B580C680C2943FE0C322809148041F
:1017A0008770F9F0BB20E9F0892F807F803461F0E9
:1017B00080E2810F8830A8F0892F807E803221F46A
:1017C000123078F0CC2069F08091CF0482FF09C0FC
:1017D00082E00E943B20809148048770AA24A39451
:1017E0008111A12C902E92942FE09222892D90E0CD
:1017F0008C30910508F00DC2FC01E659FF4F0C94A6
:101800006531902F9F70802F807FD92E19F0D29450
:1018100090EFD922BB20A9F0DD2009F4DAC180E2E3
:10182000810F883010F0111104C08D2D0E942E20E0
:1018300005C08091C504D82AD092C5040E94D62044
:10184000C8C1812F0E947325DD2009F4E2C180E226
:10185000810F883068F1112359F18D2D0E942020CD
:101860002AC0902F9F70802F807FD92E803219F050
:10187000D29480EFD822112321F0113009F469C0ED
:1018800074C08091CF0482FD19C0BB2059F0DD20C7
:1018900029F08D2D0E942E200E94D62080E00E94EB
:1018A0009D25B7C180E00E947325DD2009F4B1C1F8
:1018B0008D2D0E9427200E94D620ABC1BB2081F134
:1018C000CC2009F456C0F1E0CF1212C080916B0415
:1018D0008D21D81609F49DC10E94BA2690936A04FE
:1018E0008093690480916B04D82AD0926B0491C1D3
:1018F00080913603823008F48CC1C8128AC18D2DC4
:101900000E946C258D2D0E940B20809145049D2DF9
:101910009823D91609F47DC1D82AD092450479C1FB
:10192000CC2069F080913603823008F472C121E046
:10193000C2126FC18091F9028D2109F46AC18D2D07
:101940000E9465258D2D0E940B208D2D0E94152152
:1019500060C180913C03BB2021F08C1508F459C173
:1019600008C0C81608F055C10AC0BB2031F0C1102C
:1019700030C18D2D0E946C254CC1C11033C18D2DFD
:101980000E94652546C1802F86958695837019F043
:10199000813061F03EC1BB2021F0812F902F9370E8
:1019A00002C080E090E00E949A273BC1BB2021F05A
:1019B000812F902F937002C080E090E00E947527E5
:1019C00030C1802F8370B9F5B11027C1912F929546
:1019D00096959770990F990F212F2F7030E0A901DC
:1019E000092E01C0440F0A94EAF714FF08C02FE043
:1019F00030E001C0220F9A95EAF7209501C020E05F
:101A0000902F969596959370923069F088F4809116
:101A10006C04913019F0242B822302C0842B822B7A
:101A20000E948F22FAC0242B80916C048227F8CF69
:101A3000822F842BF5CFBB2019F0802F817001C03D
:101A40008695882309F4E9C0912F92959695977011
:101A5000990F990F212F2F7030E0A901092E01C095
:101A6000440F0A94EAF714FF08C02FE030E001C0E9
:101A7000220F9A95EAF7209501C020E0902F9695C5
:101A800096959370923059F078F48091730191306B
:101A900019F0242B82230AC0842B822B07C0242B0D
:101AA00080917301822702C0822F842B0E945122D1
:101AB000B4C0302F3F70D32EBB2039F0832F0E944B
:101AC0008322812F0E946C25A8C0812F0E9465254A
:101AD0008D2D0E947622A1C0123F11F128F4103FF3
:101AE00041F0113FA9F171C0133F01F1143F61F1C1
:101AF0006CC080913C03BB2021F0C81608F089C05F
:101B000003C08C1508F485C0202F2F7181E090E070
:101B100001C0880F2A95EAF790917301892711C0B7
:101B2000802F8F71BB2009F458C06FC0BB2041F0DB
:101B300081E0902F9F7101C0880F9A95EAF701C04C
:101B400080E00E94512265C08091CF0482FD06C0D2
:101B5000802F8F71BB2009F458C03FC0809136039D
:101B6000823008F1BB2089F090914804977094303E
:101B700039F40E943420802F8F710E94762248C051
:101B8000C81608F045C063E005C0C81640F00E94C2
:101B9000342064E0802F8F710E94692039C081E079
:101BA0000E943B2035C0BB2031F063E0802F8F7155
:101BB0000E9469202EC081E00E943B2041E04C152C
:101BC00040F582E00E943B2024C0BB2049F0CC209D
:101BD00011F0812F64CE802F8F710E94832219C053
:101BE000CC2089F0193329F480913A0390913B037A
:101BF00004C080913803909139030E94C518812F49
:101C00000E94732506C0802F8F710E94762201C02A
:101C1000A12C88EF890D843020F40E94BF270E94F8
:101C2000E22D812F902F0E949222811105C01092E7
:101C30006A011092690128C0BB2019F0C110F7CFCA
:101C400023C0C110F4CF20E0D7014C9111965C91D4
:101C5000119712966C91129713967C911397149684
:101C60008C91149715969C910E94E92D80913703D1
:101C700083FFDDCF8091690190916A010297B9F6E7
:101C8000812F0E941C26D3CFAA20A9F0809148045E
:101C900080FD11C0F70115828695869586950E9474
:101CA0008322C7010E944904809148048695869545
:101CB00086950E94762260E0C7010E940E2E2D9626
:101CC000E2E10C948E31A9E1B0E0E9E6FEE00C948B
:101CD00072310E94BA269093D7048093D60490E084
:101CE00080E80FB6F89480936100909361000FBE76
:101CF00085E59CE190936501809364010E94DC1A64
:101D00000E947A1A0E940E1A0E94B11980916900ED
:101D1000886080936900E99A8BE48093170580932B
:101D20004A05809323058AE580931605809349052B
:101D300080932205539A80E0815041F0A895AFE945
:101D4000BFE01197F1F700C00000F6CF53987894E8
:101D500082E084BD93E095BD9AEF97BD80936E00BD
:101D60000E94F027811102C00E94A62A0DE111E015
:101D7000F80181918F018F3F11F00E94421DF1E027
:101D800001321F07A9F701E211E04BE2E42E41E026
:101D9000F42ED8018D918D018F3F11F00E94421DCC
:101DA000E016F106B1F788E0EDE8F1E0DF01282F59
:101DB0001D922A95E9F7EBE6F1E0DF011D928A9585
:101DC000E9F70E94711F811102C00E947D1F82E00D
:101DD00090E00E9405318093740184E090E00E94BD
:101DE00013319093CF048093CE040E94591DBFEF0E
:101DF000E6E7F1E0B150E040F040E1F700C000005C
:101E00000E94591D80918D0180FF08C06FEF7FEF08
:101E100080E090E00E9447310E94642683E090E0D9
:101E20000E9405310E948F22509A58980E94711F7B
:101E3000811102C00E947D1F8FE190E00E940D3150
:101E40006093AB047093AC048093AD049093AE04A4
:101E50008091AC0486950E949F298091AB0490915B
:101E6000AC04A091AD04B091AE04892B8A2B8B2BCE
:101E700021F08091AC048E7F19F50E94CB2981E07E
:101E80008093F40245983D9A80E00E948319519A0C
:101E900081E091E09093CB048093CA042FEF30E768
:101EA00082E0215030408040E1F700C0000035E979
:101EB000232E31E0332E552453944424439450C0B0
:101EC0000E94B129DCCF8091D504882339F180E0CC
:101ED0000E94E22D1092D004A8E1B0E0E0E40FB639
:101EE000F894A895A09360000FBEE093600083B7BC
:101EF000817F846083BF83B7816083BF7894889536
:101F000083B78E7F83BF0FB6F894A8958091600049
:101F1000886180936000109260000FBE0E94591D7E
:101F2000EDE8F1E081919191892B09F0FFC52E1622
:101F30003F06C1F70E94C6268111C5CF0E94C52465
:101F40000E94BF270E94E22D0E94FB2B8091030577
:101F500081110CC00E94FB2B80910305811177C178
:101F60000E94C626882381F31CE0E4CF80911605E9
:101F700084FFF0CF0E94591D05E711E02DE8822E65
:101F800021E0922E2DE731E0D401F80141915191E9
:101F90008D919D91842795272E173F0719F0892B46
:101FA000A9F305C0892B19F40E94461F3DC0712C6E
:101FB000D401AD90BD904D01F801C080D180CA24FC
:101FC000DB24C114D10441F1612CEE24E394F12C03
:101FD000C6018E219F21892BB1F06C8A7D8A0E94D7
:101FE000BA269F8B8E8B488E91E095012E213F2142
:101FF000232B09F490E0998F4C895D896E897F8944
:10200000888D0E941D2E6394EE0CFF1CFAE06F1267
:10201000DFCFD801AD92BC9273940E5F1F4FB4E036
:102020007B12C6CF0E94AE268091BE049091BF0461
:10203000892B09F43EC04091B3045091B4046091DF
:10204000B5047091B6042FB7F8948091D1049091A3
:10205000D204A091D304B091D4042FBF841B950B5C
:10206000A60BB70B4091AF045091B0046091B1043E
:102070007091B20484179507A607B707D0F0809136
:10208000BE049091BF040E94D2301092BF041092FF
:10209000BE041092B3041092B4041092B5041092CE
:1020A000B6041092AF041092B0041092B1041092D2
:1020B000B2048091C6049091C704892B81F180916C
:1020C0007D0190917E010E949F268C01BE01655F7B
:1020D0007F4F89E0FB0111928A95E9F78091C60450
:1020E0009091C7040E94BE1A80179107C0F4809196
:1020F000C6049091C70499278830910540F414E0F4
:10210000880F991F1A95E1F785559E4F02C080E010
:1021100090E0DC0115962C9122FF0E9428288091E6
:102120000E01882341F18091F0039091F103009713
:1021300011F10E949F2620914203309143032817FA
:102140003907C8F49091EE038091EF03981759F086
:102150000E94FD1710924303109242031092F10364
:102160001092F00308C00E9493171092F10310928E
:10217000F0030E94DD178091350380FF1EC080911F
:102180000D0182FF1AC00E94BA2620913E033091B1
:102190003F03AC01421B530B20910B0130910C010A
:1021A0004217530750F02FE731E041E0BC01809126
:1021B0004003909141030E94D0188091F802882337
:1021C000B1F18091F5029091F6020E949F26409114
:1021D000AC04242F269530E02817390760F480914D
:1021E000F402811102C0459A01C045981092F8028C
:1021F0001092F7021CC040FF1AC0877099272091E7
:10220000F702049748F4211112C05092F70280910E
:10221000F402882359F008C0222349F01092F702F3
:102220008091F402811102C0459A01C045980E9434
:10223000BF27182F80918801181709F48BCE1093AF
:1022400088010E94AE26812F0E94E22D83CE8091CC
:10225000220584FF85CE8091F804803209F080CE7B
:1022600000919501109196018091D80401151105F6
:1022700069F08E3F09F050C48091D904833008F48E
:10228000F2C18550833008F047C4EDC18B3009F4AA
:10229000D0C138F5853009F48FC0D8F48230E9F127
:1022A00038F4813009F035C41092D90489E056C35E
:1022B000833009F46FC0843009F02BC44091DB04F3
:1022C0006091DA048091D9040E9437179093DC045E
:1022D00050C4873009F41DC408F01BC40E940E2AA4
:1022E0001BC4803109F4E0C060F48D3009F476C07D
:1022F00008F472C08E3009F475C08F3009F4A1C0A3
:1023000008C4823109F4D7C008F4D1C0833109F47C
:1023100000C18E3F09F4A7C1FCC38091D90482306B
:1023200009F41DC4833071F0813009F0F2C30E94BA
:10233000AE269093DA048093DB047093DC04609300
:10234000DD04EAC38091A9049091AA04892B09F4C1
:10235000E3C380918D0190918E019093DA04809374
:10236000DB0480918F01909190019093DC04809325
:10237000DD0480919101909192019093DE0480930D
:10238000DF0480919301909194019093E0048093F5
:10239000E104C2C38091D904823009F0BAC36091CC
:1023A000DA047091DB048091DC049091DD040E94DA
:1023B0006B310E94CC27B0C32091DC043091DD0446
:1023C0003227232732274091DB046091DA04809181
:1023D000D9040E941017A0C380E16AC05092D904AA
:1023E00084E8BCC20091D9041091DA0410270127B7
:1023F0001027C090DB04D12CBDE1CB16D10408F02E
:102400008BC3B8EDEB2EB4E0FB2EC80184589D4F72
:102410009701285D34402C153D0508F07DC3043834
:10242000E1E01E0730F40E940531D70114968C9329
:1024300002C0F70114820F5F1F4FFFEFEF1AFF0A70
:10244000E4CF8091A9049091AA04892B09F464C374
:102450000091D9041091DA04102701271027E09089
:10246000DB04F12C2DE1E216F10408F055C3A8EDD0
:10247000CA2EA4E0DA2EC80184589D4F9601285D2B
:1024800034402E153F0508F047C3043831E01307E8
:1024900028F4D60114966C910E9429310F5F1F4FCA
:1024A000BFEFCB1ADB0AE7CF0E94FE2935C384E0D9
:1024B0008093D90431C30091D9041091DA04102714
:1024C00001271027C090DB04D12CEDE1CE16D104FA
:1024D00008F022C3F8EDEF2EF4E0FF2EC801889635
:1024E0009701285D34402C153D0508F015C30034D4
:1024F000F1E01F0730F40E940531D70114968C9348
:1025000002C0F70114820F5F1F4FFFEFEF1AFF0A9F
:10251000E5CF0091D9041091DA0410270127102784
:10252000C090DB04D12C2DE1C216D10408F0F4C216
:10253000480138E2830E911C003481E0180708F04E
:10254000EBC280E491E0801B910B8C159D0508F493
:10255000E3C28091A9049091AA04892B29F0E8EDA7
:10256000EE2EE4E0FE2E5CC000FF11C0C80187968D
:102570000E94053190E0982F88272091DC04822B5F
:1025800081159C4739F48FEF8093DC0403C0E12C64
:10259000F12C03C0EE24E394F12CC601800F911FAF
:1025A000560180FF18C0B1E0AB1AB108F501E45242
:1025B000FB4F3F01C4018C0D9D1D0E940531D301CD
:1025C0002C9130E0322F2227282B21153C4719F47B
:1025D0008FEFF3018083F701E852FB4F2FEFCF011C
:1025E000885D94408A159B0508F0B9CF848190E0FE
:1025F000982F88273581832B81159C4711F42483DC
:1026000025833296ECCF0034A1E01A0720F4F701BD
:1026100064810E9429310F5F1F4FFFEFEF1AFF0AFD
:10262000C80188969701285D34402C153D0558F364
:1026300073C28091A9049091AA04892B09F46CC2F9
:1026400040E250E068ED74E084E00E94942D2FEFAA
:1026500031EE84E0215030408040E1F700C00000BE
:102660000E94642659C2E091D9048E2F90E08E30EA
:10267000910508F051C2FC01EA58FF4F0C946531F6
:1026800088E0E5E1F1E0DE01119601900D928A9576
:10269000E1F780E2E8EDF4E0DF011D928A95E9F7C9
:1026A00086E08093D80488E0FE013196ACEDB4E07A
:1026B00004C280E28093D8045092D9041092DA04C4
:1026C0001092DB0429C28091DB0490E0982F8827C8
:1026D0002091DA04820F911D092E000CAA0BBB0B6E
:1026E00035E0880F991FAA1FBB1F3A95D1F7AC019F
:1026F000BD01405E5F4F6F4F7F4F481759076A0714
:102700007B0708F409C28032E1E09E07A105B1050C
:1027100008F002C24132F1E05F076105710520F067
:1027200040E251E060E070E0481B590BBC016A5E7A
:102730007E4F88ED94E00E94EC30EEC140E250E024
:102740006FEF70E088ED94E00E94BF318091A904A2
:102750008093D8040093D9041092DA041092DB0419
:1027600083E08093DC0489E004C281E090E09093F0
:1027700096018093950182E390E090938C01809381
:102780008B010E94BA2690938A0180938901C4C16B
:10279000012BA1F1109194011695117080918D017A
:1027A00018238091890190918A010E949F26853685
:1027B0009105F0F01123E1F00E94BA2690938A016E
:1027C0008093890180918B0190918C010197909366
:1027D0008C0180938B01892B89F4109296011092C1
:1027E000950181E090E09093AA048093A90406C02B
:1027F00082E390E090938C0180938B018091A904F7
:102800008093D804809195018093D90480918B01A5
:10281000A5C01092AA041092A9047EC10091DA0406
:102820001091DB0440E250E06FEF70E088ED94E03F
:102830000E94BF3126E332E0A6ECB2E080E090E0F7
:10284000AC014E5F5F4F4132510508F065C1F9019F
:10285000659174910617170730F4FC01E852FB4F9D
:1028600071836083CA01245F3F4FA217B30741F70A
:1028700053C14091DA045091DB0426EC32E086E348
:1028800092E0FC01659174914617570729F00C9668
:1028900028173907B1F73DC1009709F43AC1FC0187
:1028A0003696259134912115310509F432C14FE155
:1028B00050E069ED74E0F90109952CC12091DA042A
:1028C0003091DB0486EC92E006E312E0F8014591DA
:1028D00054914217530731F0045F1F4F801791073F
:1028E000A9F717C10115110509F413C1F8013896AC
:1028F000259134912115310509F40BC14CE150E0CB
:102900006CED74E0C801F9010995009709F002C166
:10291000F8013A9685919491009711F0FC01099580
:1029200080E0F8C00E94D819F7C0E091DA048E2F39
:1029300090E08730910508F0EFC0FC01EC57FF4FA5
:102940000C94653180E2E8EDF4E0DF011D928A9598
:10295000E9F788E08093D8048093D9048093DA045F
:10296000DBC08091DB041AE0FE0131967F01DF01BC
:10297000E12F1D92EA95E9F7B7010E94B62A8093EC
:10298000D804F701A9EDB4E001900D921A95E1F792
:10299000C3C01091DB048AE0ECEDF4E0DE01119697
:1029A00001900D928A95E1F789819A810E94451CD8
:1029B0009A8389838B819C810E94451C9C838B8395
:1029C0008D819E810E94451C9E838D838F81988579
:1029D0000E94451C98878F83183070F4FAE01F9F7F
:1029E000B001112464577E4F4AE050E0CE010196B9
:1029F0000E944D3180E001C08FEF8093D8040E9487
:102A0000DC1A8AC06091DB048E010F5F1F4F8AE0E1
:102A1000D8011D928A95E9F7683008F047C0BAE0FE
:102A20006B9FB001112464527E4F39C01091DB04BA
:102A30008AE0ECEDF4E0DE01119601900D928A95AA
:102A4000E1F789859A850E94451C9A878987183005
:102A500070F4EAE01E9FB001112464527E4F4AE0F8
:102A600050E0CE0101960E944D3180E001C08FEF11
:102A70008093D8040E947A1A4FC06091DB048E01C3
:102A80000F5F1F4F8AE0D8011D928A95E9F76830E1
:102A900068F4BAE06B9FB0011124645D7D4F4AE099
:102AA00050E0C8010E94F53080E001C08FEF8093B4
:102AB000D8048AE0F801A9EDB4E001900D928A955E
:102AC000E1F72AC01091DB048AE0ECEDF4E0DE01CE
:102AD000119601900D928A95E1F78B819C810E945D
:102AE000451C9C838B83183070F4EAE01E9FB00174
:102AF0001124645D7D4F4AE050E0CE0101960E94B2
:102B00004D3180E001C08FEF8093D8040E940E1AEF
:102B100003C08FEF8093D80440E250E068ED74E08A
:102B200084E00E94942D1092F8041ACAF8949AB185
:102B30005B9A892F8C608AB98BB181278BB9FFE7AB
:102B400028E331E0F15020403040E1F700C00000C0
:102B50008BB181278BB99AB95B987894EBC987E2DE
:102B600090E00E9405311092DA041092DB0410927A
:102B7000DC048093DD04D0CFA0E0B0E0E2ECF5E12E
:102B80000C947A314430510508F46CC04091CE0465
:102B900041FBCC24C0F8D12CCC0CDD1C42FB882797
:102BA00080F9C82FE0E0DE2FCC0FDD1FCC0FDD1F3A
:102BB000CC2ADD2A40FBEE24E0F8F12CEC28FD289D
:102BC00043FBAA27A0F9B0E023E0AA0FBB1F2A9578
:102BD000E1F7EA2AFB2A44FBEE27E0F9F0E034E0D3
:102BE000EE0FFF1F3A95E1F7EE29FF2945FB22275B
:102BF00020F930E055E0220F331F5A95E1F72E2BD4
:102C00003F2B46FB882780F990E0E6E0880F991F6C
:102C1000EA95E1F7822B932B47FB442740F950E0DC
:102C20005695542F442757954795842B952B2091E3
:102C3000CF04322F3170132F00E0082B192B26956B
:102C40002170B22EBB0CA12C0A291B29012E000CCD
:102C5000220B330BFB01008311832283338380E03B
:102C600090E002C08FEF9FEFCDB7DEB7EAE00C94A3
:102C7000963180911A0390911B0390930C018093DD
:102C80000B0108950F931F93CF93DF930AE113E095
:102C9000C8E6D1E0CE010E940531F80161918F01B3
:102CA000681719F0CE010E9429312196CC38F1E045
:102CB000DF0781F7DF91CF911F910F910895CF9298
:102CC000DF92EF92FF924430510508F471C0FB018E
:102CD000C080D180E280F3800E94C5248091CE0420
:102CE000C0FA80F9B701A601769567955795479583
:102CF00040FB81F9B701A60122E0769567955795CB
:102D000047952A95D1F740FB82F9B701A60133E038
:102D100076956795579547953A95D1F740FB83F996
:102D2000B701A601E4E07695679557954795EA9532
:102D3000D1F740FB84F9B701A601F5E076956795D8
:102D400057954795FA95D1F740FB85F9B701A6014C
:102D5000A6E07695679557954795AA95D1F740FBDC
:102D600086F9B701A601B7E076956795579547951F
:102D7000BA95D1F740FB87F98093CE048091CF04B8
:102D8000D0FA80F999E0F694E794D794C7949A958D
:102D9000D1F7C0FA81F98093CF046091CE0470918D
:102DA000CF0484E090E00E94473180E090E002C0D0
:102DB0008FEF9FEFFF90EF90DF90CF900895DA01B3
:102DC0009C012E5F3F4FF90145915491F9012591E6
:102DD0003491A217B30758F0FC0134968591949171
:102DE0000E94B6310E94421680E090E008958FEF75
:102DF0009FEF08959C01CA01F901329645915491C3
:102E00008417950750F0CB01F901349665917491C0
:102E10000E94B63180E090E008958FEF9FEF089513
:102E20001F93CF93DF93962F8430E8F46430D8F467
:102E30004A30C8F4632F122FC42FD0E0CC0FDD1F0F
:102E400024E1929FC00DD11D112490E5899FC00DF2
:102E5000D11D1124CE0188960E942931612FCE0107
:102E600089960E942931DF91CF911F9108950F9388
:102E70001F93CF93DF93843008F56430F8F44A3021
:102E8000E8F4C42FD0E0CC0FDD1F24E1629FC00D19
:102E9000D11D112430E5839FC00DD11D1124CE0119
:102EA00088960E94053190E0182F0027CE01899660
:102EB0000E9405319801282BC90102C080E090E0F2
:102EC000DF91CF911F910F910895BC014091EE03C6
:102ED0008091EF03942F981729F1292F30E0F90101
:102EE000EE0FFF1FEA51FC4F0190F081E02DE61735
:102EF000F70799F487E0869FF001879FF00D112472
:102F0000EB5BFC4F81E0848394130CC02F5F3F4F39
:102F1000237033272093EE0308952F5F3F4F922FA6
:102F20009370D9CF0895EF92FF920F931F93CF9391
:102F3000DF9380917D038823D9F1C09144038DE014
:102F4000F82E80917D03C81778F5EE24E394EC0EFB
:102F5000E0924403D0E0FC9EF001FD9EF00D1124B0
:102F6000E258FC4F84818823E9F087819085892B82
:102F700021F481859285019659F400811181228185
:102F80003381448155816681778180850E94E72461
:102F9000FC9EF001FD9EF00D1124E258FC4F1482BE
:102FA0001092C504CE2DCDCF10927D031092440314
:102FB000CDB7DEB7E6E00C949A311092430310923D
:102FC0004203E5E4F3E08581811102C01482168298
:102FD000379683E0ED37F807B1F708951092F103C3
:102FE0001092F00310920E018091EF038093EE0394
:102FF0000E94DD170E9493170895A0E0B0E0E3E07F
:10300000F8E10C947331C091EE0397E0992E01E042
:1030100010E02DE0322E34E0432E5524539480915D
:10302000EF03C81709F479C0D0E0FE01EE0FFF1FCF
:10303000EA51FC4F80819181989ED001999EB00DFC
:103040001124AB5BBC4F14962C911497211162C0D4
:1030500070907D03EEE7F3E020E030E0812C5D012D
:10306000271508F055C0E384F484D501CD90DC9099
:103070006FEF7FEF612C462D50E0DA01AA0FBB1FE6
:10308000AC0DBD1D0D90BC91A02D109731F0EA162E
:10309000FB0609F4BA016394EECF6F3FBFEF7B07E5
:1030A00099F1D80102C0AA0FBB1F6A95E2F78A2ADC
:1030B000B801062C02C0660F771F0A94E2F7AB0135
:1030C00041505109682D70E046175707E1F4329ED0
:1030D000F001339EF00D1124E258FC4F989ED00170
:1030E000999EB00D1124AB5BBC4F12962D913C9173
:1030F00013973087278344821082118292878187B9
:1031000015965C9205C014822F5F3F4F3D96A8CF65
:103110000E9465172196C37082CF0E9493170E9468
:10312000DD17CDB7DEB7E1E10C948F3180910D0151
:10313000877F80930D0182E00E94202080910D0105
:1031400084FF06C08F7E80930D0182E00E942E20B6
:1031500080910D0185FF06C08F7D80930D0180E277
:103160000E942E200E94D6200895662329F02091E7
:10317000C50422602093C5049C01305221153043C0
:1031800008F499270E94D2300895009741F0EFE9A2
:10319000FFE03197F1F700C000000197F6CF0895E6
:1031A000A0E0B0E0E6EDF8E10C947A315C017B013F
:1031B000C42E890180910D0182FF88C0C091400317
:1031C000D0914103CA15DB0521F0A114B10409F027
:1031D0007DC080910D018B7F80930D0181FD11C019
:1031E00080913E0390913F03A701481B590B81E05A
:1031F00020910B0130910C014217530718F480E025
:1032000001C081E08170D82E80910D01D0FA81F942
:1032100080930D01FE01FF2784E0F695E7958A95DE
:10322000E1F79E012F703327EE0FFF1FE650FD4F91
:1032300081E090E002C0880F991F2A95E2F7DD2017
:1032400029F020813181822B932B06C080959095A7
:103250002081318182239323918380838091F9029D
:1032600081FF08C080910D01806180930D0182E093
:103270000E9427208091F90285FF08C080910D01EE
:10328000806280930D0180E20E942720A8016D2DAD
:10329000CE010E94B518CC2031F08091350385FF16
:1032A00002C086FF2BC080913803909139030E94A1
:1032B000C51880914003909141039C013052211523
:1032C000304308F499270E94B83012C0C5019052CB
:1032D0008115904318F4C501992701C0C5010E94CA
:1032E000B8308091400390914103A816B90611F4BB
:1032F0000E949618F0923F03E0923E03CDB7DEB7EE
:10330000EAE00C949631CF93DF939091AC04C82FF0
:10331000D0E0FE0190FD03C0E850FD4F02C0E9502F
:10332000FD4F808181111AC0FE01E850FD4F81E000
:103330008083FE01E950FD4F80830E94BA26FE0182
:10334000EE0FFF1FEB50FD4F91838083CC50DD4F7C
:103350008881882311F0459A01C04598DF91CF916B
:1033600008950F931F93CF93DF930AE113E0C8E60C
:10337000D1E0CE010E940531F80181938F012196A1
:10338000CC38F1E0DF07A9F7C0E0D0E0FE01E05C57
:10339000FD4F85919491009711F0FC0109952C96B1
:1033A000C039D10599F7DF91CF911F910F91089501
:1033B000EAE1F3E0128E138E8FEA90E0918380832E
:1033C00085E0848F28E833E13383228322E330E0F1
:1033D000378B268B28EC30E0318F208F158E178E9F
:1033E000168E20E530E031A320A382A30E9442166E
:1033F0000E94C5241092CF041092CE04EFECF4E0AA
:103400008081846080836091CE047091CF0484E0D9
:1034100090E00E9447310E94B1190895AAE0B0E0FF
:10342000E4E1FAE10C947A310CE712E08CE2E82E48
:1034300082E0F82E9FE0B92E2BE7C22E22E0D22E9A
:10344000AA24A3944AE050E0B701CE0101960E945D
:10345000F530F8018B2D11928A95E9F789819A81CF
:10346000F801918380838F8182838D818383888516
:103470008483898585838B819C819783868310864D
:103480008A8587FF03C01686158603C0F801D68695
:10349000C58680FF02C0F801A08681FF04C0F80144
:1034A00090859260908782FF04C0F80190859460B7
:1034B000908783FF04C0F80190859860908784FF0F
:1034C00004C0F80190859061908785FF04C0F801E1
:1034D000808580628087FAE0EF0EF11C015F1F4F4C
:1034E0008CE7E81682E0F80609F0ACCF2A96EAE00D
:1034F0000C949631AAE0B0E0E0E8FAE10C947C315B
:1035000080E5EBE2F2E0DF011D928A95E9F788E3BE
:10351000E5E4F3E0DF011D928A95E9F78BE2C82E1E
:1035200082E0D82E7F010CED11E0F701D182C0823C
:103530004AE050E0B801CE0101960E94F53088E0E3
:10354000FE013196D60101900D928A95E1F78985A9
:103550009A85D70113969C938E931297BAE0CB0E5F
:10356000D11CE7E0EE0EF11C065F1F4F0C32F2E0BB
:103570001F07D9F62A96E8E00C949831AAE0B0E04B
:10358000E4ECFAE10C9482319C0137552F3F310570
:1035900009F050F4BE016F5F7F4F0E94B62A892B5D
:1035A00019F489859A8504C0809132039091330380
:1035B0002A96E2E00C949E31EBEAF1E080E090E0A4
:1035C00064EA7BE14BEC5BE129E13BE177836683D5
:1035D0005187408733872287978786870196709621
:1035E0008830910599F70895A6E0B0E0EAEFFAE196
:1035F0000C9482319093980180939701811520E279
:10360000920718F40E94B83010C080EF89838A8333
:103610000E94BA268160682F9C838B8349815A81DE
:103620007C8181E090E00E941D2E2696E2E00C94C1
:103630009E310F931F93CF93DF938C01EB0161EACF
:1036400071E08C2F0E94B62A892B09F042C080912C
:103650003803909139030E94C518DD27C756DE4F05
:103660008881F80112821882833079F048F4813021
:1036700041F1823071F58091A3019091A40109C0BC
:10368000843051F08530E9F024C08091A5019091FB
:10369000A6010097B1F01BC08091A7019091A801ED
:1036A0000097A9F42091A1013091A2018091A3017A
:1036B0009091A4012115310541F0009741F4C90111
:1036C00006C08091A1019091A201009711F00E9483
:1036D000F41ADF91CF911F910F910895A6E0B0E009
:1036E000E4E7FBE10C948231909398018093970179
:1036F000811520E2920718F40E94D23010C080EFAA
:1037000089838A830E94BA268160682F9C838B8379
:1037100049815A817C8181E091E00E941D2E26968C
:10372000E2E00C949E31CF93DF93EC010E946E1B7C
:1037300080913803909139030E94C518CE010E94F0
:10374000F41ADF91CF9108950F931F93CF93DF93D6
:103750008C01862F61EA71E00E94B62A892BB1F4B0
:10376000C091A101D091A201209781F0F80182813E
:10377000833039F4CE010E94931BCE010E94931B2B
:1037800002C0843018F0CE010E94931BDF91CF91CC
:103790001F910F9108950F931F93CF93DF938C0187
:1037A000EB0161EA71E08C2F0E94B62A892B09F0A7
:1037B00067C0DD27F8018281813039F4958192FD5F
:1037C00013C090FF11C082E00FC0823041F4F801B5
:1037D000858182FD06C080FD06C083E005C086E0CD
:1037E00003C085E001C084E0C756DE4F8883833084
:1037F000B1F028F4813071F0823031F041C0843072
:10380000A9F0853079F13CC08091A3019091A40189
:103810000097A1F58091A1019091A20120C0809113
:10382000A5019091A6010097E9F028C08091A70119
:103830009091A801009711F58091A1019091A201AA
:10384000009749F00E94931B8091A3019091A401DD
:10385000009781F013C08091A3019091A40100977B
:1038600079F00CC08091A1019091A201009741F0E4
:103870000E94931B8091A1019091A2010E946E1B56
:10388000DF91CF911F910F91089581152CE7920739
:1038900059F48091A9049091AA04892B19F480E02D
:1038A00090E0089580E09CE7089580E0089590916D
:1038B000CE0492FF10C041E0282F2471243009F07B
:1038C00040E031E0282F2871283009F030E043171C
:1038D00011F02CE0822793FF10C041E0282F2471C3
:1038E000243109F040E031E0282F2871283109F017
:1038F00030E0431711F02CE082273091CF0430FFE5
:1039000010C051E0282F2171213009F050E041E032
:10391000282F2871283009F040E0541711F029E0D1
:10392000822731FF10C041E0282F2171213109F099
:1039300040E031E0282F2871283109F030E04317AA
:1039400011F029E0822794FD877E08958238910541
:1039500069F1B0F48133910509F475C048F48932F6
:10396000910509F467C08A32910509F471C0089580
:103970008533910509F459C089339105B9F008954B
:10398000833E910589F138F4803E9105D1F0823E65
:10399000910529F10895863E9105C9F1873E91056B
:1039A000D9F1843E910509F06CC027C02091CE0466
:1039B00020FD57C021FD55C02091CF0423FD5BC0E1
:1039C00008958091CE0480FD48C08091CF0480FF8F
:1039D00048C08091CE0484FD46C083EE51C08091E2
:1039E000CE0482FF3CC0F5CF8091CE0482FD37C06B
:1039F0008091CF0480FD35C0ECCF8091CF0481FF52
:103A000036C08091CE0484FD2EC087EE39C08091EF
:103A1000CE0483FF2AC0F5CF8091CE0483FD25C05C
:103A20008091CF0481FD23C0ECCF8091CE0485FD31
:103A300022C01FC08091CE0485FD1BC08091CF04A1
:103A400083FF19C00AC08091CE0486FD16C017C03E
:103A50008091CE0486FD13C010C089E311C082EEB0
:103A60000FC080EE0DC080E00BC086EE09C084EE72
:103A700007C085E305C089E203C08AE201C081E393
:103A800090E00895F894E82FE295EF70F0E031A10E
:103A9000282F2F7081E090E001C0880F2A95EAF767
:103AA000982F9095932391A392A1892B82A3789428
:103AB0000895A8E0B0E0EFE5FDE10C947631AE01A9
:103AC0004F5F5F4F7A0188E0FA0111928A95E9F71A
:103AD0000DE111E06A0191E2692E91E0792E8824CE
:103AE0008394912CF80180818F3F09F447C0F894AA
:103AF000E82FE295EF70F0E021A18F70A40102C0E1
:103B0000440F551F8A95E2F7CA01922F982B91A373
:103B100092A18095892382A3789400C0E1E2F1E02C
:103B200021E030E0A12CB12C41914F3F89F0A42F2E
:103B3000A295AF70B0E090968C9190E04F7002C06B
:103B4000959587954A95E2F780FD02C0C90102C0AC
:103B500080E090E0A82AB92A220F331F51E0EB320F
:103B6000F50711F7F80180818F3F11F00E94421D87
:103B7000F0EAFA95F1F7F601B182A0820F5F1F4FCC
:103B8000F2E0CF0ED11C6016710609F0ABCF48E011
:103B900050E0B7018BE691E00E94A931892B91F0AA
:103BA00088E0F701ABE6B1E001900D928A95E1F76C
:103BB00081E0809371040E94BA26909370048093F0
:103BC0006F040CC080917104882341F080916F04D0
:103BD000909170040E949F26059710F480E018C011
:103BE00048E050E06BE671E08DE891E00E94A93179
:103BF000892B59F088E0EBE6F1E0ADE8B1E0019007
:103C00000D928A95E1F781E001C080E01092710485
:103C10002896EEE00C949231209195013091960116
:103C2000232BA1F4703F39F4603F81F48091970118
:103C3000909198010895743048F46A3038F48430D3
:103C400028F4462F672F0E943717089580E090E0F0
:103C500008951F93CF93DF930E94A61CEC01C1151A
:103C600080E5D807E8F5C11590E4D90708F0A8C0A9
:103C7000C03ED10530F5CD3CD10508F094C0C83A1E
:103C8000D10578F4C53AD10508F083C0C130D1051B
:103C900009F47CC008F4F2C0C430D10508F0F1C0CA
:103CA000EDC0C33CD10508F0E9C0C85AD0E0CC0F44
:103CB000DD1FC25DDE4F0990D881C02DCE01946416
:103CC000E1C0C11580E2D80708F0CBC0C11591E072
:103CD000D90708F06BC0C83ED10508F4D2C0CEC0E9
:103CE000C03682E5D80728F5C03492E5D90708F038
:103CF00079C0C03282E5D80708F06CC0C11592E5E2
:103D0000D90708F481C04C2F4695469580E2489F1C
:103D1000A0011124C37021E030E0C90102C0880F66
:103D2000991FCA95E2F7EA01C82BD92BCE019D68ED
:103D3000A9C0C03A82E5D807B8F48C2F8F71C0387B
:103D400092E5D90708F07BC08695869590E2899F19
:103D500090011124C37081E090E002C0880F991F88
:103D6000CA95E2F79A6868C0C03C82E5D80708F4B3
:103D70006DC0C03E92E5D90708F080C0CF71DD2745
:103D8000DC2FCC27CE01806F906A7CC081E090E070
:103D900079C0C55AD0E0C55DDE4F8881C82FD0E01C
:103DA000CE0190646FC0CE0190656CC08D2F0E94D3
:103DB000571C182FCE0199270E94A61C1F715CC0AA
:103DC000CE0199270E94A61CCC27DF70D06A8C2BCD
:103DD0009D2B58C0CF71D0E0DC2FCC27CE01816F56
:103DE000906A50C08C2F8F718695869590E2899F3E
:103DF00090011124C37081E090E002C0880F991FE8
:103E0000CA95E2F79C6818C08C2F8F710E94571CCE
:103E100095E0D695C7959A95E1F7CF70D0E0DC2F65
:103E2000CC27282F30E084FF05C084E0220F331F09
:103E30008A95E1F7D069CE01822B932B23C090E0C5
:103E4000D82FCC27CE01846F906A1CC08C2F8F7125
:103E50000E94571C8F7190E0D82FCC27CE01906222
:103E600011C08D2F8F710E94571C182FCE019927DA
:103E70000E94A61C1F719062912B04C080E090E00C
:103E800001C0CE01DF91CF911F910895A6E0B0E06F
:103E9000ECE4FFE10C9480310E94BA268C01809101
:103EA0006D0490916E040817190781F019821A8227
:103EB0000E94BA26682F49815A81792F80E090E0CC
:103EC0000E941D2E10936E0400936D042696E4E06C
:103ED0000C949C31AB01BC018FE190E00E943B311E
:103EE000089580E090E00E941331853E9E4F19F4C2
:103EF0000E94F027089580E00895A8E0B0E0E3E88C
:103F0000FFE10C94823165EE7EEF80E090E00E944C
:103F1000473160E082E090E00E94293181E08093A7
:103F20006C0461E083E090E00E94293160E074E17C
:103F300084E090E00E94473160E086E090E00E94DB
:103F4000293160E087E090E00E94293140E050E0B4
:103F5000BA0188E090E00E943B3160E083E290E0AB
:103F60000E94293160E08CE090E00E94293160E0FD
:103F70008DE090E00E94293119821A821B821C82F6
:103F80001D821E821F82188648E050E067E170E0C3
:103F9000CE0101960E94193140E050E0BA018FE154
:103FA00090E00E943B310E94CB2980E00E94D12703
:103FB0000E94A62A40E050E0BA018FE090E00E9403
:103FC0003B3140E050E0BA0183E190E00E943B3198
:103FD0002896E2E00C949E3180916B04882331F0A6
:103FE00010926B0410926A04109269040895CF93A2
:103FF0009091CF0492FF0DC090916B04981749F0F7
:10400000C82F0E94BA2690936A0480936904C093D3
:104010006B04CF91089590916B04292F282379F098
:104020008095892380936B04882319F00E94BA2617
:1040300002C080E090E090936A0480936904089540
:1040400080959091C50489238093C5040895809537
:104050009091F90289238093F90208959091F902D1
:10406000892B8093F9020895109248041092470416
:104070001092460408959091480480958923809376
:104080004804282F277069F4981759F09091CF04AD
:1040900092FF07C08695869586950E9476220E949B
:1040A000342008959091CF0492FB222720F92817FD
:1040B00079F080FB92F99093CF046091CE047091D7
:1040C000CF0484E090E00E94473182E00E943B20D0
:1040D00008959091CF0492FF10C098E0899F9001BD
:1040E0001124262B209348040E9483220E94BA2682
:1040F000909347048093460408950E948322089574
:1041000080911C0390911D03892B89F00E94BA268F
:104110002091690430916A04AC01421B530B81E089
:1041200020911C0330911D034217530708F480E0CF
:1041300081700895CF93C091F9028091C504C82B76
:1041400080916B04882349F180911C0390911D0399
:10415000892B29F00E94802081110E94EC1F809100
:104160006B04C82B80911101813041F48091CE0401
:1041700087FF04C02EE18BE894E003C026E083E8CB
:1041800094E0FC0180E0215028F091919923D9F32B
:104190008F5FF9CF81110E94EC1F8091BB04809545
:1041A000C8238091BC048C2BCF910895809111017C
:1041B000813051F58091CE0487FF26C00E949A205D
:1041C00080938A0440E250E069E474E089E894E076
:1041D0000E94A931892B41F180E2E9E8F4E0A9E4E9
:1041E000B4E001900D928A95E1F7E091CA04F09154
:1041F000CB043097C9F086E0809389040480F58170
:10420000E02D89E894E00FC00E949A2080938104F9
:10421000E091CA04F091CB04309731F00280F38131
:10422000E02D81E894E00995089590914504292FA7
:10423000282321F080959823909345040895209198
:1042400044049091FB0359E02917A9F030E0529FF4
:10425000F001539FF00D1124E450FC4F718176134F
:1042600006C07081781303C07581741306C02F5F78
:104270003F4F2770E9CF80E0089581E00895809155
:1042800044049091FB03891719F08F5F8770FBCF6F
:104290000895A0E0B0E0EFE4F1E20C947D3180916C
:1042A000F80382958F7009F052C08091F70388233C
:1042B00009F44DC0C091440489E0D82E8091FB03DD
:1042C000C81709F444C0D0E0DC9E8001DD9E100DCB
:1042D0001124F801E450FC4F84818823A9F19181D5
:1042E0008091F303981330C090818091F20398136A
:1042F0002BC08581811128C0E280F3808091F40376
:104300009091F503E81AF90A60E082EF93E00E94C9
:104310000E2E62EF73E00E94BE1AE816F906A0F4B2
:104320008091F8038F7080618093F803F801EE5F4D
:10433000FB4F80818F708061808382EF93E00E94C9
:1043400049040E943F2103C02196C770B7CFCDB763
:10435000DEB7E7E00C949931CF92DF92FF920F9392
:104360001F93CF93DF936C010091730180916C04D4
:10437000082BC3E0D0E010E0C8010C2E02C09595D8
:1043800087950A94E2F780FD04C02197A8F7F12CE5
:1043900009C0FC2EB6018C2F0E940C1E0E94291E03
:1043A000019799F38F2DDF91CF911F910F91FF907E
:1043B000DF90CF900895CF93DF93EC010E94AC2162
:1043C000BE010E940C1E0E94291EDF91CF9108950C
:1043D000292F943078F58A3068F590E03AE0239FF1
:1043E000800D911D1124682F677023E096958795A5
:1043F0002A95E1F7FC01EE0FFF1FE80FF91FEE58B9
:10440000FB4F40E050E080E0219130E0062E02C0FA
:10441000369527950A94E2F721703327042E01C0C0
:10442000220F0A94EAF7822B4F5F5F4F433051050A
:1044300059F7089580E00895292F943088F58A303F
:1044400078F590E03AE0239F800D911D1124282FEC
:10445000277051E001C0550F2A95EAF723E09695A1
:1044600087952A95E1F7FC01EE0FFF1FE80FF91F72
:10447000EE58FB4F20E030E070E04081CB01022E8F
:1044800002C0969587950A94E2F7817081958427FA
:104490008523842781932F5F3F4F2330310569F7B0
:1044A00008958093730108959091730121E030E0A5
:1044B000F90101C0EE0F8A95EAF7D90102C0AA0FEF
:1044C000BB1F6A95E2F7BD016E2B01C0220F4A9512
:1044D000EAF7892F8623681303C0892F822B03C034
:1044E0002095822F89230E945122089521E030E0F7
:1044F00001C0220F8A95EAF72095809173018223EB
:104500000E945122089521E030E001C0220F8A95D7
:10451000EAF780917301822B0E94512208958093C3
:104520006C04089592959F70963079F010F4925033
:1045300001C09A50923068F4803F69F018F4883EC8
:1045400040F409C0843F29F406C0883E20F0813F32
:1045500011F080E0089581E00895FC012481222378
:1045600071F087819085009719F00E94291E04C080
:10457000808191810E94DB210E949222089580E037
:104580000895A8E1B0E0E7ECF2E20C9475318C01FB
:1045900086E0F801DE01539601900D928A95E1F7CD
:1045A000D80114967C9014971596EC9082EFA82E63
:1045B00083E0B82E8091F603811122C0772009F4A0
:1045C0005BC0EE2009F455C0C8010E94AD22F82E50
:1045D000882309F44EC089E0F801A2EFB3E001900E
:1045E0000D928A95E1F78091F603813031F4809144
:1045F000F2039091F3030E94DB210E944921C0C184
:10460000F80150806180C280D38060E082EF93E047
:104610000E940E2EF090F7038091F4039091F50321
:104620004601881A990A60E082EF93E0FF2009F4BE
:1046300031C10E940E2E62EF73E00E94BE1A8816EE
:10464000990608F0CCC07720B9F08091F803382F94
:10465000307F2091F303D80111969C911197332359
:1046600071F0291709F47AC0C8010E94AD228111A6
:1046700089C0C8010E944904FF24F39481C1291311
:104680001FC02091F2039C9129131AC04091F90395
:104690005091FA0317962D913C91189742175307A2
:1046A00079F4E1100DC08F7080618093F80382EF80
:1046B00093E00E9449048091F803F80186839DC02D
:1046C000E1103AC040E0662D852D0E941F21E82EA2
:1046D000882329F08091370380FF8FC036C05B8A22
:1046E0006C8A8B899C890E94DB21292F22952F704F
:1046F000243020F49F70223028F009C02A50223044
:1047000080F014C0992349F0811107C013C0992388
:1047100021F0F8019681907F69F0805E883030F456
:1047200009C0803F38F0815F833020F0C8010E94CB
:104730004904EF2CFE2C24C18091F8038160809302
:10474000F8038091370381FD58C082EF93E00E9407
:104750004904E2EFF3E089E0DF014CC02091F2036D
:10476000F8019081291380CF4091F9035091FA0309
:10477000278130854217530709F076CFE11074CFB7
:104780008683DFC0EE2009F474CF2091F803822FD6
:1047900082958F7090E00297BCF08091F203909127
:1047A000F3039B878A87DD86CC868091F6038E870C
:1047B0001F86288B8091F9039091FA039A8B898B3D
:1047C000CE010A960E94490489E0F801A2EFB3E005
:1047D00001900D928A95E1F70E9449214DCF809179
:1047E000F803982F907F59F482EF93E00E944904D8
:1047F00089E0D5011D928A95E9F7F12CC1C0772097
:1048000009F43ACF2091F303F801918129131AC0DA
:104810002091F2039081291315C04091F903509122
:10482000FA03278130854217530761F4E1100AC06B
:104830008683C8010E94490489E0D5011D928A95AA
:10484000E9F79EC0C8010E94AD22882309F411CF68
:10485000EE2009F40ECF2091F803822F82958F70FD
:1048600090E002970CF4B0CF8091F2039091F303A3
:104870009A838983DC82CB828091F6038D831E82AA
:104880002F838091F9039091FA0399878887CE014D
:10489000019698CF0E940E2E62EF73E00E94BE1A1E
:1048A0008816990608F067C0772009F4E5CEFE2C3B
:1048B000EE2009F4DECE9091F303F8018181981384
:1048C0004CC09091F2038081981347C02091F90366
:1048D0003091FA038781908528173907F1F5A09068
:1048E000F403B090F50360E082EF93E00E940E2E97
:1048F0008091370382FD28C0CA18DB0880913203FB
:1049000090913303C816D906F8F42091F80320FDDE
:104910001BC0822F82958F70482F50E041155105A2
:1049200099F0D80116962C9316974F30510549F0FF
:104930008F5F982F9295907F822F8F70892B16967C
:104940008C93C8010E94490489E0F801A2EFB3E00A
:1049500001900D928A95E1F713C0C8010E94AD2223
:10496000811132CF8091F80381608093F803C801F0
:104970000E94490405C089E0F50111928A95E9F782
:104980008F2D6896EFE00C9491311092F90280918E
:104990001101813041F48091CE0487FF04C08EE183
:1049A000EBE8F4E003C086E0E3E8F4E0DF011D9209
:1049B0008A95E9F780E090E00E949A2780E090E0F5
:1049C0000E9475271092C5040E94D6200895A2E186
:1049D000B0E0EDEEF4E20C9480310A871B872C875F
:1049E0003D874E875F87688B798B8A8BCE010A96CD
:1049F0000E94C12281113BC089E0FE013A96DE018E
:104A0000119601900D928A95E1F76E85662379F1F2
:104A10002091FB0330E0C9010196877099274091EE
:104A2000440450E084179507A1F06D8399E0929FAC
:104A3000D001939FB00D1124A450BC4FFE013196BC
:104A400001900D929A95E1F78093FB030E943F211C
:104A50000EC00E94C5241092FB0310924404E2EFA2
:104A6000F3E089E0DF011D928A95E9F719C019E0AA
:104A7000809144049091FB03891791F0189FC00125
:104A8000112484509C4F0E94C122882349F08091B8
:104A9000440490E001968770992780934404E8CFFE
:104AA0006296E4E00C949C31882321F00E9420203F
:104AB0000E94D6200895882339F09091C504892B4F
:104AC0008093C5040E94D6200895882321F00E9477
:104AD00027200E94D6200895882321F00E942E20AE
:104AE0000E94D6200895882339F19CEF980F913ABF
:104AF00018F40E9410270DC090E2980F983060F4CF
:104B0000877091E001C0990F8A95EAF7892F0E947A
:104B100027200E94D62008959BE5980F933028F413
:104B200080E090E00E949A270895885A8B3120F403
:104B300080E090E00E9475270895CF93882309F4C0
:104B400061C0C82F8CEF8C0F813AA0F580911101C4
:104B50008130E1F48091CE0487FF18C0EC2FE695F8
:104B6000E695E695F0E0E757FB4F8281282F30E08D
:104B70004C2F477081E090E002C0880F991F4A9542
:104B8000E2F782239323892B61F410C0E3E8F4E079
:104B900089E894E02191C21721F08E179F07D1F781
:104BA00005C08C2F0E9410270E94D6208C2F0E94B7
:104BB0003E270CC080E28C0F883058F4C77081E02B
:104BC00001C0880FCA95EAF70E942E200E94D620C5
:104BD00019C0EBE5EC0FE33040F4F0E0E55DFE4F8B
:104BE000808190E00E949A270DC0C85ACB3150F4C2
:104BF000EC2FF0E0EE0FFF1FE25DFE4F8081918110
:104C00000E947527CF9108951F93CF93DF93182F9C
:104C1000EB010E949D25209741F08FE99FE00197CD
:104C2000F1F700C000002197F6CF812F0E94732575
:104C3000DF91CF911F910895893329F460913A0350
:104C400070913B0304C060913803709139030E9456
:104C500004260895809110010895FF920F931F93E9
:104C6000CF93DF93D82F8B01F42EC5E0D33059F0CA
:104C7000D43081F0D13019F58091160584FF15C02C
:104C800046E155E00DC08091490584FF0EC049E41E
:104C900055E006C08091220584FF07C042E255E03E
:104CA0006F2DC8010E94722D0AC00E94FB2B8FE15C
:104CB0009EE40197F1F700C00000C150B9F6CDB7EE
:104CC000DEB7E5E00C949B3198E088E10FB6F894EC
:104CD000A895809360000FBE90936000A895F8940B
:104CE000D8E0CEEF28E3299320E0299314BEFFCF2C
:104CF000089578941F920F920FB60F9211248F93FC
:104D00009F93AF93BF938091D1049091D204A091CF
:104D1000D304B091D4040196A11DB11D8093D10498
:104D20009093D204A093D304B093D404BF91AF91D5
:104D30009F918F910F900FBE0F901F9018959C011F
:104D40004FB7F8948091D1049091D204A091D304EC
:104D5000B091D4044FBF821B930B08952FB7F894E2
:104D60006091D1047091D2048091D3049091D404C5
:104D70002FBF08952FB7F8948091D1049091D20459
:104D8000A091D304B091D4042FBF089580910A0557
:104D9000882359F010920A050E94BA269093D704EE
:104DA0008093D6041092D5040FC08091D504811150
:104DB0000BC08091D6049091D7040E949F2606973D
:104DC00018F081E08093D5048091D50408951F9256
:104DD0000F920FB60F9211248F939F93AF93BF93AF
:104DE0008091D004811113C08091D1049091D2049C
:104DF000A091D304B091D4044196A11DB11D80931C
:104E0000D1049093D204A093D304B093D404BF915F
:104E1000AF919F918F910F900FBE0F901F9018959B
:104E200090911101913021F49091CE0497FD03C02F
:104E3000E1E8F4E01DC0E82FE695E695E695EE3151
:104E4000E0F4F0E0E757FB4F877021E030E0A90184
:104E500002C0440F551F8A95E2F7CA0180959281DE
:104E6000892382830895319654E0E738F50729F0C5
:104E700092818913F8CF1282F6CF08959091110193
:104E80009130D1F49091CE0497FF16C0E82FE695AB
:104E9000E695E695EE3140F5F0E0E757FB4F877079
:104EA00021E030E0A90102C0440F551F8A95E2F7C6
:104EB000CA019281892B16C0A3E8B4E0EFEF90E01D
:104EC0002D91821789F0EF3F19F4211101C0E92FCC
:104ED0009F5F9630A9F7EF3F39F00E2E000CFF0BC5
:104EE000EF57FB4F828308950895A3E0B0E0EBE70E
:104EF000F7E20C9482312091CC043091CD04281734
:104F00003907A1F09093CD048093CC04E091CA04BA
:104F1000F091CB04309751F024E029839B838A835E
:104F20000084F185E02DCE01019609952396E2E0FB
:104F30000C949E31A3E0B0E0E0EAF7E20C948231F9
:104F40002091C8043091C90428173907A1F0909323
:104F5000C9048093C804E091CA04F091CB0430974F
:104F600051F023E029839B838A830084F185E02D1F
:104F7000CE01019609952396E2E00C949E31E091D2
:104F8000CA04F091CB04309729F00190F081E02D14
:104F90000995089580E0089587E290E00E94293104
:104FA0000895CF93C82F811102C06FEF01C061E255
:104FB00084E290E00E942931C11102C06FEF01C06C
:104FC00069E285E290E00E942931C11102C06FEFD1
:104FD00001C06CE686E290E00E942931CF910895ED
:104FE00084E290E00E940531813281F485E290E014
:104FF0000E940531893251F486E290E00E94053129
:1050000091E08C3609F090E0892F01C080E081703A
:1050100008954115510511F0FA0109950895CF93AE
:10502000DF93EC014A855B856E857F850E940928A8
:105030008B810E9420208C810E9427200E94D620F4
:1050400086E0FE0111928A95E9F7DF91CF910895EC
:10505000CF93DF93EC018D8181FD14C082608D833D
:105060009091C5048B81892B8093C5048C810E940B
:105070002E200E94D620488559856E857F85CE01D9
:105080000E9409281092C7041092C6048D8180FDE9
:1050900003C0CE010E940F28DF91CF910895A0E0B8
:1050A000B0E0E5E5F8E20C947A317C015B01C42FB5
:1050B000D22FFC0185818823B1F04093C4040E9463
:1050C000BA269093C3048093C20480E28C0F883088
:1050D00008F052C0C77081E001C0880FCA95EAF796
:1050E0000E946C2549C08091C404481335C080914A
:1050F000C2049091C3040E949F266C01B701C501B0
:105100000E94BE1AC816D90638F510E21D0FCD1739
:10511000B9F080E28C0F883040F4C77081E001C0A4
:10512000880FCA95EAF70E946525183010F581E0CE
:105130009D2F977001C0880F9A95EAF70E946C2501
:10514000802F0E941C261830B8F4D77081E001C06F
:10515000880FDA95EAF70AC080E28C0F883060F495
:10516000C77081E001C0880FCA95EAF70E946525E3
:1051700003C0802F0E941C26CDB7DEB7EAE00C9456
:105180009631CF93DF93EC014091B7045091B8046E
:105190006091B9047091BA042FB7F8948091D1044A
:1051A0009091D204A091D304B091D4042FBF841B5A
:1051B000950BA60BB70B843F9140A105B105A8F450
:1051C0008091B7049091B804A091B904B091BA0449
:1051D0008093B3049093B404A093B504B093B60441
:1051E00084EF91E0A0E0B0E00EC00E94AE26609394
:1051F000B3047093B4048093B5049093B60482E32F
:1052000090E0A0E0B0E08093AF049093B004A0934E
:10521000B104B093B204D093BF04C093BE04DF9135
:10522000CF910895FF920F931F93CF93DF93009137
:10523000C0041091C1040115110509F45AC010925F
:10524000BF041092BE041092BB041092BC04D8019B
:1052500016962D913C911797A9015A9541155F41DA
:1052600008F4307EC22FD1E0211101C0D0E0F82E29
:10527000D8011996ED91FC911A97309739F01B9649
:105280006D917C911C9780E00995D823DD2369F00E
:105290008CEF8C0F813A20F48C2F0E94102705C0D0
:1052A0000E94D6208C2F0E947325E091C004F091BB
:1052B000C10440815181FF2071F0808584FD0BC0C5
:1052C0008091BD04882339F091E09A012150310981
:1052D0002F333E4708F090E090FF03C0CA010E94C0
:1052E000C1280E94D6201092C1041092C0041092CE
:1052F000BD04C801CDB7DEB7E5E00C949B31FC01DD
:1053000084818623C1F492819923B9F08085692331
:1053100083FF04C081E0611111C00DC0892F8F701F
:1053200092959F70982B862F8F7062956F70682B67
:1053300081E0961719F080E0089581E00895ECEA85
:10534000F4E0880F90819170892B80836091AB0489
:105350007091AC048091AD049091AE040E946A1FDC
:1053600008958091AB0480FF02C0599A089559981E
:105370000895EBEAF4E08081816080830E94B12986
:105380006091AB047091AC048091AD049091AE0437
:105390000E946A1F0895EBEAF4E0808181608083B7
:1053A0000E94B129EEEAF4E080818C7F8083ECEAF0
:1053B000F4E08081817084618E7F80838AE00E9426
:1053C0009F296091AB047091AC048091AD049091E1
:1053D000AE040E946A1F0895EBEAF4E080818E7F9C
:1053E00080830E94B1296091AB047091AC048091DC
:1053F000AD049091AE040E946A1F0895CF93DF938D
:10540000CCE7D2E060E0CE010E9429312196C1159F
:1054100084E0D807B9F7DF91CF910895AEE1B0E00D
:10542000E4E1FAE20C947631A090A904B090AA04C9
:1054300081E090E09093AA048093A904C12CD12C20
:10544000712CE12CF12C612C00E010E047018C0C58
:105450009D1C402F81E0871558F0F801EE0FFF1FCB
:10546000E80DF91DEA53FD4F859194919C0102C00E
:1054700021E030E0662D872D0E9410170F5F1F4F2F
:105480000A30110531F76394E4E1EE0EF11CF4E00B
:105490006F12DACF739480E5C80ED11CE4E07E125F
:1054A000D0CF0E94D8191A8219821C821B821E82B8
:1054B0001D8218861F8288EC90E09A8789870CE805
:1054C00011E04AE050E0B801CE0101960E944D3152
:1054D000065F1F4F0C3DF1E01F0799F77E018BE03F
:1054E000E80EF11C8AE0F70111928A95E9F74AE08B
:1054F00050E0B801C7010E944D31065F1F4F0C32CA
:10550000F2E01F07A1F77E0185E1E80EF11C8AE0B9
:10551000F70111928A95E9F78FEF9FEF9A8F898FA4
:1055200087E08E8F4AE050E0B801C7010E944D31FC
:10553000065F1F4F0C37F2E01F07A1F7B092AA04D5
:10554000A092A9046E96EEE00C94923180E00E9445
:10555000D12760E070E0CB010E94CC270E940E2A88
:105560000E94FE2981E00E94D1270895883080F4AE
:105570009B01982F8AE0989FB001112464577E4FB9
:105580004AE050E0C9010E94F53080E090E00895C3
:105590008FEF9FEF0895FC0193819330E1F068F461
:1055A000913089F0923009F075C083E894E09093CF
:1055B0000905809308058BE508959132A9F192328F
:1055C00009F448C067C08EED94E09093090580937C
:1055D000080582E1089582818130B1F068F082305F
:1055E000D9F0833009F056C089E394E0909309051F
:1055F000809308058CE108958FE794E09093090566
:105600008093080584E0089587E694E09093090567
:105610008093080586E1089587E594E09093090555
:10562000809308058EE008958481958181309105ED
:1056300049F028F0029771F58EEC94E005C085E9F9
:1056400094E002C08EEA94E09093090580930805E7
:1056500089E00895848195818130910599F050F019
:105660000297C1F486E693E09093090580930805BC
:105670008DE6089585EF93E09093090580930805E2
:1056800084E4089583ED93E09093090580930805E1
:1056900082E2089580E008950895A0E0B0E0E3E597
:1056A000FBE20C947A31EC018AE0A82E28812223B7
:1056B00009F49CC0213009F041C08981813039F45E
:1056C0008E010E5F1F4F8A810E941C2611C08230FE
:1056D00039F48E010E5F1F4F8A810E949D2508C0FC
:1056E000833041F48E010E5F1F4F8A810E94732523
:1056F000E8017AC0843011F0219676C02A81229682
:1057000080E090E030E0205331092A30310558F430
:10571000A89EA001A99E500D1124C901840F951FB8
:1057200021962881EFCF009709F45EC0EFE9FFE0F2
:105730003197F1F700C000000197F5CFE22FF0E0BC
:10574000E05EFA4FB490822F86958695869590E01C
:10575000FC01E05FFA4FE4902770F12C022E02C0AA
:10576000F594E7940A94E2F7F1E0EF22FF24FC01BC
:10577000E050FB4FC490D12C022E02C0D594C794A8
:105780000A94E2F731E0C322DD24FC01E051FB4F33
:10579000049110E002C0159507952A95E2F7017073
:1057A0001127E114F10419F081EE0E949D25C11426
:1057B000D10419F086EE0E949D2560E070E08B2DEB
:1057C0000E940426C114D10419F086EE0E947325AC
:1057D000E114F10419F081EE0E9473250115110501
:1057E00019F08CE20E941C26219660CFCDB7DEB75F
:1057F000EAE00C949631CF93DF938091310583508A
:1058000087FD04C190913005CCE0D0E0C91BD109DF
:10581000CD5CDA4F90912F059031D0F4883019F09B
:105820001092F804F1C08091F804E82FF0E0E9311B
:10583000F105B4F7E852FB4F9E01285F3F4F999165
:105840009193C217D307D9F7885F8093F804DCC01F
:105850009D3209F0C0C0883009F0D6C083EC809337
:105860000B058AE5809314011092070588818076E4
:1058700009F45AC0803209F0A3C08981833011F144
:1058800060F4813091F0823009F09AC080910F016C
:105890008093FA048AEF94E01BC08A30A1F18B3028
:1058A000B1F1893009F08CC019C08C819D81892BA0
:1058B00009F086C08BEF94E090930905809308056A
:1058C00088E07FC0809111018093F90489EF94E012
:1058D000909309058093080581E073C08A819B81BC
:1058E0008115924009F0EDC08C819D81892B09F0D2
:1058F000E8C081E0809306058E819F819093050525
:1059000080930405DEC08B8180930F0159C08C8188
:105910009D81892B09F054C081E09A81911101C0C9
:1059200080E0809311014CC09A8110921405898106
:10593000811106C01092150524E135E082E03BC0DC
:10594000853019F49093320533C08630B9F48B81D9
:10595000813041F0823031F0833021F0813211F01A
:10596000823221F4CE010E94CB2A01C080E090E473
:10597000909307058F3F09F4A4C023C0883089F0B5
:10598000893019F49093030513C08A3069F08B3085
:1059900079F48BE48093170580934A05809323055F
:1059A00007C023E035E002C024E135E081E003C018
:1059B00024E135E080E0309309052093080501C01B
:1059C00080E09F81911104C09E81981708F4892F6F
:1059D0008093130119C08091070587FF15C080913E
:1059E000040590910505892B09F475C08091060581
:1059F000813009F070C088818093100110920505F4
:105A00001092040510921301109231058091140137
:105A100084FF4CC0809113018F3F09F447C0C82F09
:105A2000893008F0C8E08C1B8093130190910B051E
:105A300088E8892780930B05CC2359F180910805CC
:105A4000909109052091070526FF12C0ABE0B5E053
:105A50002C2FAC014B505540FA01EA0FFB1FE4918B
:105A60001196EC931197215011962111F5CF08C092
:105A7000ECE0F5E0DC012C2F3D9131932150E1F772
:105A800001962FEF2C0F820F911D909309058093A3
:105A900008056C2F8CE095E00E940403CC5FCC30AD
:105AA00019F08FEF80931301C093140184E199B131
:105AB0009C70A9F48150D9F71092320510922E05EE
:105AC0000EC0888187FF05C08E8190E890930705FE
:105AD0007FCF8FEFFACF8EE18093140195CFDF91C6
